{
  "contractName": "LevelItem",
  "abi": [
    {
      "inputs": [],
      "stateMutability": "nonpayable",
      "type": "constructor"
    },
    {
      "anonymous": false,
      "inputs": [
        {
          "indexed": true,
          "internalType": "address",
          "name": "owner",
          "type": "address"
        },
        {
          "indexed": true,
          "internalType": "address",
          "name": "approved",
          "type": "address"
        },
        {
          "indexed": true,
          "internalType": "uint256",
          "name": "tokenId",
          "type": "uint256"
        }
      ],
      "name": "Approval",
      "type": "event"
    },
    {
      "anonymous": false,
      "inputs": [
        {
          "indexed": true,
          "internalType": "address",
          "name": "owner",
          "type": "address"
        },
        {
          "indexed": true,
          "internalType": "address",
          "name": "operator",
          "type": "address"
        },
        {
          "indexed": false,
          "internalType": "bool",
          "name": "approved",
          "type": "bool"
        }
      ],
      "name": "ApprovalForAll",
      "type": "event"
    },
    {
      "anonymous": false,
      "inputs": [
        {
          "indexed": true,
          "internalType": "address",
          "name": "from",
          "type": "address"
        },
        {
          "indexed": true,
          "internalType": "address",
          "name": "to",
          "type": "address"
        },
        {
          "indexed": true,
          "internalType": "uint256",
          "name": "tokenId",
          "type": "uint256"
        }
      ],
      "name": "Transfer",
      "type": "event"
    },
    {
      "inputs": [
        {
          "internalType": "address",
          "name": "to",
          "type": "address"
        },
        {
          "internalType": "uint256",
          "name": "tokenId",
          "type": "uint256"
        }
      ],
      "name": "approve",
      "outputs": [],
      "stateMutability": "nonpayable",
      "type": "function"
    },
    {
      "inputs": [
        {
          "internalType": "address",
          "name": "owner",
          "type": "address"
        }
      ],
      "name": "balanceOf",
      "outputs": [
        {
          "internalType": "uint256",
          "name": "",
          "type": "uint256"
        }
      ],
      "stateMutability": "view",
      "type": "function",
      "constant": true
    },
    {
      "inputs": [
        {
          "internalType": "uint256",
          "name": "tokenId",
          "type": "uint256"
        }
      ],
      "name": "getApproved",
      "outputs": [
        {
          "internalType": "address",
          "name": "",
          "type": "address"
        }
      ],
      "stateMutability": "view",
      "type": "function",
      "constant": true
    },
    {
      "inputs": [
        {
          "internalType": "address",
          "name": "owner",
          "type": "address"
        },
        {
          "internalType": "address",
          "name": "operator",
          "type": "address"
        }
      ],
      "name": "isApprovedForAll",
      "outputs": [
        {
          "internalType": "bool",
          "name": "",
          "type": "bool"
        }
      ],
      "stateMutability": "view",
      "type": "function",
      "constant": true
    },
    {
      "inputs": [],
      "name": "name",
      "outputs": [
        {
          "internalType": "string",
          "name": "",
          "type": "string"
        }
      ],
      "stateMutability": "view",
      "type": "function",
      "constant": true
    },
    {
      "inputs": [
        {
          "internalType": "uint256",
          "name": "tokenId",
          "type": "uint256"
        }
      ],
      "name": "ownerOf",
      "outputs": [
        {
          "internalType": "address",
          "name": "",
          "type": "address"
        }
      ],
      "stateMutability": "view",
      "type": "function",
      "constant": true
    },
    {
      "inputs": [
        {
          "internalType": "address",
          "name": "from",
          "type": "address"
        },
        {
          "internalType": "address",
          "name": "to",
          "type": "address"
        },
        {
          "internalType": "uint256",
          "name": "tokenId",
          "type": "uint256"
        }
      ],
      "name": "safeTransferFrom",
      "outputs": [],
      "stateMutability": "nonpayable",
      "type": "function"
    },
    {
      "inputs": [
        {
          "internalType": "address",
          "name": "from",
          "type": "address"
        },
        {
          "internalType": "address",
          "name": "to",
          "type": "address"
        },
        {
          "internalType": "uint256",
          "name": "tokenId",
          "type": "uint256"
        },
        {
          "internalType": "bytes",
          "name": "data",
          "type": "bytes"
        }
      ],
      "name": "safeTransferFrom",
      "outputs": [],
      "stateMutability": "nonpayable",
      "type": "function"
    },
    {
      "inputs": [
        {
          "internalType": "address",
          "name": "operator",
          "type": "address"
        },
        {
          "internalType": "bool",
          "name": "approved",
          "type": "bool"
        }
      ],
      "name": "setApprovalForAll",
      "outputs": [],
      "stateMutability": "nonpayable",
      "type": "function"
    },
    {
      "inputs": [
        {
          "internalType": "bytes4",
          "name": "interfaceId",
          "type": "bytes4"
        }
      ],
      "name": "supportsInterface",
      "outputs": [
        {
          "internalType": "bool",
          "name": "",
          "type": "bool"
        }
      ],
      "stateMutability": "view",
      "type": "function",
      "constant": true
    },
    {
      "inputs": [],
      "name": "symbol",
      "outputs": [
        {
          "internalType": "string",
          "name": "",
          "type": "string"
        }
      ],
      "stateMutability": "view",
      "type": "function",
      "constant": true
    },
    {
      "inputs": [
        {
          "internalType": "uint256",
          "name": "tokenId",
          "type": "uint256"
        }
      ],
      "name": "tokenURI",
      "outputs": [
        {
          "internalType": "string",
          "name": "",
          "type": "string"
        }
      ],
      "stateMutability": "view",
      "type": "function",
      "constant": true
    },
    {
      "inputs": [
        {
          "internalType": "address",
          "name": "from",
          "type": "address"
        },
        {
          "internalType": "address",
          "name": "to",
          "type": "address"
        },
        {
          "internalType": "uint256",
          "name": "tokenId",
          "type": "uint256"
        }
      ],
      "name": "transferFrom",
      "outputs": [],
      "stateMutability": "nonpayable",
      "type": "function"
    },
    {
      "inputs": [
        {
          "internalType": "address",
          "name": "player",
          "type": "address"
        }
      ],
      "name": "mint",
      "outputs": [
        {
          "internalType": "uint256",
          "name": "",
          "type": "uint256"
        }
      ],
      "stateMutability": "nonpayable",
      "type": "function"
    },
    {
      "inputs": [
        {
          "internalType": "uint256",
          "name": "tokenId",
          "type": "uint256"
        }
      ],
      "name": "levelOf",
      "outputs": [
        {
          "internalType": "uint256",
          "name": "",
          "type": "uint256"
        }
      ],
      "stateMutability": "view",
      "type": "function",
      "constant": true
    },
    {
      "inputs": [
        {
          "internalType": "address",
          "name": "player",
          "type": "address"
        }
      ],
      "name": "ownedTokensOf",
      "outputs": [
        {
          "internalType": "uint256[]",
          "name": "",
          "type": "uint256[]"
        }
      ],
      "stateMutability": "view",
      "type": "function",
      "constant": true
    }
  ],
  "bytecode": "0x60806040523480156200001157600080fd5b506040518060400160405280600981526020017f4c6576656c4974656d00000000000000000000000000000000000000000000008152506040518060400160405280600481526020017f4c49544d00000000000000000000000000000000000000000000000000000000815250816000908051906020019062000096929190620000b8565b508060019080519060200190620000af929190620000b8565b505050620001cc565b828054620000c69062000197565b90600052602060002090601f016020900481019282620000ea576000855562000136565b82601f106200010557805160ff191683800117855562000136565b8280016001018555821562000136579182015b828111156200013557825182559160200191906001019062000118565b5b50905062000145919062000149565b5090565b5b80821115620001645760008160009055506001016200014a565b5090565b7f4e487b7100000000000000000000000000000000000000000000000000000000600052602260045260246000fd5b60006002820490506001821680620001b057607f821691505b602082108103620001c657620001c562000168565b5b50919050565b612d4980620001dc6000396000f3fe608060405234801561001057600080fd5b50600436106101005760003560e01c80636d5e303211610097578063a22cb46511610066578063a22cb465146102e5578063b88d4fde14610301578063c87b56dd1461031d578063e985e9c51461034d57610100565b80636d5e30321461023757806370a08231146102675780637aa9cd301461029757806395d89b41146102c757610100565b806323b872dd116100d357806323b872dd1461019f57806342842e0e146101bb5780636352211e146101d75780636a6278421461020757610100565b806301ffc9a71461010557806306fdde0314610135578063081812fc14610153578063095ea7b314610183575b600080fd5b61011f600480360381019061011a9190611d6b565b61037d565b60405161012c9190611db3565b60405180910390f35b61013d61045f565b60405161014a9190611e67565b60405180910390f35b61016d60048036038101906101689190611ebf565b6104f1565b60405161017a9190611f2d565b60405180910390f35b61019d60048036038101906101989190611f74565b610537565b005b6101b960048036038101906101b49190611fb4565b61064e565b005b6101d560048036038101906101d09190611fb4565b6106ae565b005b6101f160048036038101906101ec9190611ebf565b6106ce565b6040516101fe9190611f2d565b60405180910390f35b610221600480360381019061021c9190612007565b610754565b60405161022e9190612043565b60405180910390f35b610251600480360381019061024c9190611ebf565b610799565b60405161025e9190612043565b60405180910390f35b610281600480360381019061027c9190612007565b6107b6565b60405161028e9190612043565b60405180910390f35b6102b160048036038101906102ac9190612007565b61086d565b6040516102be919061211c565b60405180910390f35b6102cf610904565b6040516102dc9190611e67565b60405180910390f35b6102ff60048036038101906102fa919061216a565b610996565b005b61031b600480360381019061031691906122df565b6109ac565b005b61033760048036038101906103329190611ebf565b610a0e565b6040516103449190611e67565b60405180910390f35b61036760048036038101906103629190612362565b610a76565b6040516103749190611db3565b60405180910390f35b60007f80ac58cd000000000000000000000000000000000000000000000000000000007bffffffffffffffffffffffffffffffffffffffffffffffffffffffff1916827bffffffffffffffffffffffffffffffffffffffffffffffffffffffff1916148061044857507f5b5e139f000000000000000000000000000000000000000000000000000000007bffffffffffffffffffffffffffffffffffffffffffffffffffffffff1916827bffffffffffffffffffffffffffffffffffffffffffffffffffffffff1916145b80610458575061045782610b0a565b5b9050919050565b60606000805461046e906123d1565b80601f016020809104026020016040519081016040528092919081815260200182805461049a906123d1565b80156104e75780601f106104bc576101008083540402835291602001916104e7565b820191906000526020600020905b8154815290600101906020018083116104ca57829003601f168201915b5050505050905090565b60006104fc82610b74565b6004600083815260200190815260200160002060009054906101000a900473ffffffffffffffffffffffffffffffffffffffff169050919050565b6000610542826106ce565b90508073ffffffffffffffffffffffffffffffffffffffff168373ffffffffffffffffffffffffffffffffffffffff16036105b2576040517f08c379a00000000000000000000000000000000000000000000000000000000081526004016105a990612474565b60405180910390fd5b8073ffffffffffffffffffffffffffffffffffffffff166105d1610bbf565b73ffffffffffffffffffffffffffffffffffffffff16148061060057506105ff816105fa610bbf565b610a76565b5b61063f576040517f08c379a000000000000000000000000000000000000000000000000000000000815260040161063690612506565b60405180910390fd5b6106498383610bc7565b505050565b61065f610659610bbf565b82610c80565b61069e576040517f08c379a000000000000000000000000000000000000000000000000000000000815260040161069590612598565b60405180910390fd5b6106a9838383610d15565b505050565b6106c9838383604051806020016040528060008152506109ac565b505050565b6000806106da8361100e565b9050600073ffffffffffffffffffffffffffffffffffffffff168173ffffffffffffffffffffffffffffffffffffffff160361074b576040517f08c379a000000000000000000000000000000000000000000000000000000000815260040161074290612604565b60405180910390fd5b80915050919050565b600080610761600861104b565b905061076d8382611059565b600160066000838152602001908152602001600020819055506107906008611276565b80915050919050565b600060066000838152602001908152602001600020549050919050565b60008073ffffffffffffffffffffffffffffffffffffffff168273ffffffffffffffffffffffffffffffffffffffff1603610826576040517f08c379a000000000000000000000000000000000000000000000000000000000815260040161081d90612696565b60405180910390fd5b600360008373ffffffffffffffffffffffffffffffffffffffff1673ffffffffffffffffffffffffffffffffffffffff168152602001908152602001600020549050919050565b6060600760008373ffffffffffffffffffffffffffffffffffffffff1673ffffffffffffffffffffffffffffffffffffffff1681526020019081526020016000208054806020026020016040519081016040528092919081815260200182805480156108f857602002820191906000526020600020905b8154815260200190600101908083116108e4575b50505050509050919050565b606060018054610913906123d1565b80601f016020809104026020016040519081016040528092919081815260200182805461093f906123d1565b801561098c5780601f106109615761010080835404028352916020019161098c565b820191906000526020600020905b81548152906001019060200180831161096f57829003601f168201915b5050505050905090565b6109a86109a1610bbf565b838361128c565b5050565b6109bd6109b7610bbf565b83610c80565b6109fc576040517f08c379a00000000000000000000000000000000000000000000000000000000081526004016109f390612598565b60405180910390fd5b610a08848484846113f8565b50505050565b6060610a1982610b74565b6000610a23611454565b90506000815111610a435760405180602001604052806000815250610a6e565b80610a4d8461146b565b604051602001610a5e9291906126f2565b6040516020818303038152906040525b915050919050565b6000600560008473ffffffffffffffffffffffffffffffffffffffff1673ffffffffffffffffffffffffffffffffffffffff16815260200190815260200160002060008373ffffffffffffffffffffffffffffffffffffffff1673ffffffffffffffffffffffffffffffffffffffff16815260200190815260200160002060009054906101000a900460ff16905092915050565b60007f01ffc9a7000000000000000000000000000000000000000000000000000000007bffffffffffffffffffffffffffffffffffffffffffffffffffffffff1916827bffffffffffffffffffffffffffffffffffffffffffffffffffffffff1916149050919050565b610b7d81611539565b610bbc576040517f08c379a0000000000000000000000000000000000000000000000000000000008152600401610bb390612604565b60405180910390fd5b50565b600033905090565b816004600083815260200190815260200160002060006101000a81548173ffffffffffffffffffffffffffffffffffffffff021916908373ffffffffffffffffffffffffffffffffffffffff160217905550808273ffffffffffffffffffffffffffffffffffffffff16610c3a836106ce565b73ffffffffffffffffffffffffffffffffffffffff167f8c5be1e5ebec7d5bd14f71427d1e84f3dd0314c0f7b2291e5b200ac8c7c3b92560405160405180910390a45050565b600080610c8c836106ce565b90508073ffffffffffffffffffffffffffffffffffffffff168473ffffffffffffffffffffffffffffffffffffffff161480610cce5750610ccd8185610a76565b5b80610d0c57508373ffffffffffffffffffffffffffffffffffffffff16610cf4846104f1565b73ffffffffffffffffffffffffffffffffffffffff16145b91505092915050565b8273ffffffffffffffffffffffffffffffffffffffff16610d35826106ce565b73ffffffffffffffffffffffffffffffffffffffff1614610d8b576040517f08c379a0000000000000000000000000000000000000000000000000000000008152600401610d8290612788565b60405180910390fd5b600073ffffffffffffffffffffffffffffffffffffffff168273ffffffffffffffffffffffffffffffffffffffff1603610dfa576040517f08c379a0000000000000000000000000000000000000000000000000000000008152600401610df19061281a565b60405180910390fd5b610e07838383600161157a565b8273ffffffffffffffffffffffffffffffffffffffff16610e27826106ce565b73ffffffffffffffffffffffffffffffffffffffff1614610e7d576040517f08c379a0000000000000000000000000000000000000000000000000000000008152600401610e7490612788565b60405180910390fd5b6004600082815260200190815260200160002060006101000a81549073ffffffffffffffffffffffffffffffffffffffff02191690556001600360008573ffffffffffffffffffffffffffffffffffffffff1673ffffffffffffffffffffffffffffffffffffffff168152602001908152602001600020600082825403925050819055506001600360008473ffffffffffffffffffffffffffffffffffffffff1673ffffffffffffffffffffffffffffffffffffffff16815260200190815260200160002060008282540192505081905550816002600083815260200190815260200160002060006101000a81548173ffffffffffffffffffffffffffffffffffffffff021916908373ffffffffffffffffffffffffffffffffffffffff160217905550808273ffffffffffffffffffffffffffffffffffffffff168473ffffffffffffffffffffffffffffffffffffffff167fddf252ad1be2c89b69c2b068fc378daa952ba7f163c4a11628f55a4df523b3ef60405160405180910390a461100983838360016118d6565b505050565b60006002600083815260200190815260200160002060009054906101000a900473ffffffffffffffffffffffffffffffffffffffff169050919050565b600081600001549050919050565b600073ffffffffffffffffffffffffffffffffffffffff168273ffffffffffffffffffffffffffffffffffffffff16036110c8576040517f08c379a00000000000000000000000000000000000000000000000000000000081526004016110bf90612886565b60405180910390fd5b6110d181611539565b15611111576040517f08c379a0000000000000000000000000000000000000000000000000000000008152600401611108906128f2565b60405180910390fd5b61111f60008383600161157a565b61112881611539565b15611168576040517f08c379a000000000000000000000000000000000000000000000000000000000815260040161115f906128f2565b60405180910390fd5b6001600360008473ffffffffffffffffffffffffffffffffffffffff1673ffffffffffffffffffffffffffffffffffffffff16815260200190815260200160002060008282540192505081905550816002600083815260200190815260200160002060006101000a81548173ffffffffffffffffffffffffffffffffffffffff021916908373ffffffffffffffffffffffffffffffffffffffff160217905550808273ffffffffffffffffffffffffffffffffffffffff16600073ffffffffffffffffffffffffffffffffffffffff167fddf252ad1be2c89b69c2b068fc378daa952ba7f163c4a11628f55a4df523b3ef60405160405180910390a46112726000838360016118d6565b5050565b6001816000016000828254019250508190555050565b8173ffffffffffffffffffffffffffffffffffffffff168373ffffffffffffffffffffffffffffffffffffffff16036112fa576040517f08c379a00000000000000000000000000000000000000000000000000000000081526004016112f19061295e565b60405180910390fd5b80600560008573ffffffffffffffffffffffffffffffffffffffff1673ffffffffffffffffffffffffffffffffffffffff16815260200190815260200160002060008473ffffffffffffffffffffffffffffffffffffffff1673ffffffffffffffffffffffffffffffffffffffff16815260200190815260200160002060006101000a81548160ff0219169083151502179055508173ffffffffffffffffffffffffffffffffffffffff168373ffffffffffffffffffffffffffffffffffffffff167f17307eab39ab6107e8899845ad3d59bd9653f200f220920489ca2b5937696c31836040516113eb9190611db3565b60405180910390a3505050565b611403848484610d15565b61140f848484846118dc565b61144e576040517f08c379a0000000000000000000000000000000000000000000000000000000008152600401611445906129f0565b60405180910390fd5b50505050565b606060405180602001604052806000815250905090565b60606000600161147a84611a63565b01905060008167ffffffffffffffff811115611499576114986121b4565b5b6040519080825280601f01601f1916602001820160405280156114cb5781602001600182028036833780820191505090505b509050600082602001820190505b60011561152e578080600190039150507f3031323334353637383961626364656600000000000000000000000000000000600a86061a8153600a858161152257611521612a10565b5b049450600085036114d9575b819350505050919050565b60008073ffffffffffffffffffffffffffffffffffffffff1661155b8361100e565b73ffffffffffffffffffffffffffffffffffffffff1614159050919050565b61158684848484611bb6565b60018111156115ca576040517f08c379a00000000000000000000000000000000000000000000000000000000081526004016115c190612ab1565b60405180910390fd5b600073ffffffffffffffffffffffffffffffffffffffff168373ffffffffffffffffffffffffffffffffffffffff161461166557600760008473ffffffffffffffffffffffffffffffffffffffff1673ffffffffffffffffffffffffffffffffffffffff1681526020019081526020016000208290806001815401808255809150506001900390600052602060002001600090919091909150555b600073ffffffffffffffffffffffffffffffffffffffff168473ffffffffffffffffffffffffffffffffffffffff16146118d05760005b600760008673ffffffffffffffffffffffffffffffffffffffff1673ffffffffffffffffffffffffffffffffffffffff168152602001908152602001600020805490508110156118ce5782600760008773ffffffffffffffffffffffffffffffffffffffff1673ffffffffffffffffffffffffffffffffffffffff168152602001908152602001600020828154811061173857611737612ad1565b5b9060005260206000200154036118bb57600760008673ffffffffffffffffffffffffffffffffffffffff1673ffffffffffffffffffffffffffffffffffffffff1681526020019081526020016000206001600760008873ffffffffffffffffffffffffffffffffffffffff1673ffffffffffffffffffffffffffffffffffffffff168152602001908152602001600020805490506117d69190612b2f565b815481106117e7576117e6612ad1565b5b9060005260206000200154600760008773ffffffffffffffffffffffffffffffffffffffff1673ffffffffffffffffffffffffffffffffffffffff168152602001908152602001600020828154811061184357611842612ad1565b5b9060005260206000200181905550600760008673ffffffffffffffffffffffffffffffffffffffff1673ffffffffffffffffffffffffffffffffffffffff1681526020019081526020016000208054806118a05761189f612b63565b5b600190038181906000526020600020016000905590556118ce565b80806118c690612b92565b91505061169c565b505b50505050565b50505050565b60006118fd8473ffffffffffffffffffffffffffffffffffffffff16611cdc565b15611a56578373ffffffffffffffffffffffffffffffffffffffff1663150b7a02611926610bbf565b8786866040518563ffffffff1660e01b81526004016119489493929190612c2f565b6020604051808303816000875af192505050801561198457506040513d601f19601f820116820180604052508101906119819190612c90565b60015b611a06573d80600081146119b4576040519150601f19603f3d011682016040523d82523d6000602084013e6119b9565b606091505b5060008151036119fe576040517f08c379a00000000000000000000000000000000000000000000000000000000081526004016119f5906129f0565b60405180910390fd5b805181602001fd5b63150b7a0260e01b7bffffffffffffffffffffffffffffffffffffffffffffffffffffffff1916817bffffffffffffffffffffffffffffffffffffffffffffffffffffffff191614915050611a5b565b600190505b949350505050565b600080600090507a184f03e93ff9f4daa797ed6e38ed64bf6a1f0100000000000000008310611ac1577a184f03e93ff9f4daa797ed6e38ed64bf6a1f0100000000000000008381611ab757611ab6612a10565b5b0492506040810190505b6d04ee2d6d415b85acef81000000008310611afe576d04ee2d6d415b85acef81000000008381611af457611af3612a10565b5b0492506020810190505b662386f26fc100008310611b2d57662386f26fc100008381611b2357611b22612a10565b5b0492506010810190505b6305f5e1008310611b56576305f5e1008381611b4c57611b4b612a10565b5b0492506008810190505b6127108310611b7b576127108381611b7157611b70612a10565b5b0492506004810190505b60648310611b9e5760648381611b9457611b93612a10565b5b0492506002810190505b600a8310611bad576001810190505b80915050919050565b6001811115611cd657600073ffffffffffffffffffffffffffffffffffffffff168473ffffffffffffffffffffffffffffffffffffffff1614611c4a5780600360008673ffffffffffffffffffffffffffffffffffffffff1673ffffffffffffffffffffffffffffffffffffffff1681526020019081526020016000206000828254611c429190612b2f565b925050819055505b600073ffffffffffffffffffffffffffffffffffffffff168373ffffffffffffffffffffffffffffffffffffffff1614611cd55780600360008573ffffffffffffffffffffffffffffffffffffffff1673ffffffffffffffffffffffffffffffffffffffff1681526020019081526020016000206000828254611ccd9190612cbd565b925050819055505b5b50505050565b6000808273ffffffffffffffffffffffffffffffffffffffff163b119050919050565b6000604051905090565b600080fd5b600080fd5b60007fffffffff0000000000000000000000000000000000000000000000000000000082169050919050565b611d4881611d13565b8114611d5357600080fd5b50565b600081359050611d6581611d3f565b92915050565b600060208284031215611d8157611d80611d09565b5b6000611d8f84828501611d56565b91505092915050565b60008115159050919050565b611dad81611d98565b82525050565b6000602082019050611dc86000830184611da4565b92915050565b600081519050919050565b600082825260208201905092915050565b60005b83811015611e08578082015181840152602081019050611ded565b83811115611e17576000848401525b50505050565b6000601f19601f8301169050919050565b6000611e3982611dce565b611e438185611dd9565b9350611e53818560208601611dea565b611e5c81611e1d565b840191505092915050565b60006020820190508181036000830152611e818184611e2e565b905092915050565b6000819050919050565b611e9c81611e89565b8114611ea757600080fd5b50565b600081359050611eb981611e93565b92915050565b600060208284031215611ed557611ed4611d09565b5b6000611ee384828501611eaa565b91505092915050565b600073ffffffffffffffffffffffffffffffffffffffff82169050919050565b6000611f1782611eec565b9050919050565b611f2781611f0c565b82525050565b6000602082019050611f426000830184611f1e565b92915050565b611f5181611f0c565b8114611f5c57600080fd5b50565b600081359050611f6e81611f48565b92915050565b60008060408385031215611f8b57611f8a611d09565b5b6000611f9985828601611f5f565b9250506020611faa85828601611eaa565b9150509250929050565b600080600060608486031215611fcd57611fcc611d09565b5b6000611fdb86828701611f5f565b9350506020611fec86828701611f5f565b9250506040611ffd86828701611eaa565b9150509250925092565b60006020828403121561201d5761201c611d09565b5b600061202b84828501611f5f565b91505092915050565b61203d81611e89565b82525050565b60006020820190506120586000830184612034565b92915050565b600081519050919050565b600082825260208201905092915050565b6000819050602082019050919050565b61209381611e89565b82525050565b60006120a5838361208a565b60208301905092915050565b6000602082019050919050565b60006120c98261205e565b6120d38185612069565b93506120de8361207a565b8060005b8381101561210f5781516120f68882612099565b9750612101836120b1565b9250506001810190506120e2565b5085935050505092915050565b6000602082019050818103600083015261213681846120be565b905092915050565b61214781611d98565b811461215257600080fd5b50565b6000813590506121648161213e565b92915050565b6000806040838503121561218157612180611d09565b5b600061218f85828601611f5f565b92505060206121a085828601612155565b9150509250929050565b600080fd5b600080fd5b7f4e487b7100000000000000000000000000000000000000000000000000000000600052604160045260246000fd5b6121ec82611e1d565b810181811067ffffffffffffffff8211171561220b5761220a6121b4565b5b80604052505050565b600061221e611cff565b905061222a82826121e3565b919050565b600067ffffffffffffffff82111561224a576122496121b4565b5b61225382611e1d565b9050602081019050919050565b82818337600083830152505050565b600061228261227d8461222f565b612214565b90508281526020810184848401111561229e5761229d6121af565b5b6122a9848285612260565b509392505050565b600082601f8301126122c6576122c56121aa565b5b81356122d684826020860161226f565b91505092915050565b600080600080608085870312156122f9576122f8611d09565b5b600061230787828801611f5f565b945050602061231887828801611f5f565b935050604061232987828801611eaa565b925050606085013567ffffffffffffffff81111561234a57612349611d0e565b5b612356878288016122b1565b91505092959194509250565b6000806040838503121561237957612378611d09565b5b600061238785828601611f5f565b925050602061239885828601611f5f565b9150509250929050565b7f4e487b7100000000000000000000000000000000000000000000000000000000600052602260045260246000fd5b600060028204905060018216806123e957607f821691505b6020821081036123fc576123fb6123a2565b5b50919050565b7f4552433732313a20617070726f76616c20746f2063757272656e74206f776e6560008201527f7200000000000000000000000000000000000000000000000000000000000000602082015250565b600061245e602183611dd9565b915061246982612402565b604082019050919050565b6000602082019050818103600083015261248d81612451565b9050919050565b7f4552433732313a20617070726f76652063616c6c6572206973206e6f7420746f60008201527f6b656e206f776e6572206f7220617070726f76656420666f7220616c6c000000602082015250565b60006124f0603d83611dd9565b91506124fb82612494565b604082019050919050565b6000602082019050818103600083015261251f816124e3565b9050919050565b7f4552433732313a2063616c6c6572206973206e6f7420746f6b656e206f776e6560008201527f72206f7220617070726f76656400000000000000000000000000000000000000602082015250565b6000612582602d83611dd9565b915061258d82612526565b604082019050919050565b600060208201905081810360008301526125b181612575565b9050919050565b7f4552433732313a20696e76616c696420746f6b656e2049440000000000000000600082015250565b60006125ee601883611dd9565b91506125f9826125b8565b602082019050919050565b6000602082019050818103600083015261261d816125e1565b9050919050565b7f4552433732313a2061646472657373207a65726f206973206e6f74206120766160008201527f6c6964206f776e65720000000000000000000000000000000000000000000000602082015250565b6000612680602983611dd9565b915061268b82612624565b604082019050919050565b600060208201905081810360008301526126af81612673565b9050919050565b600081905092915050565b60006126cc82611dce565b6126d681856126b6565b93506126e6818560208601611dea565b80840191505092915050565b60006126fe82856126c1565b915061270a82846126c1565b91508190509392505050565b7f4552433732313a207472616e736665722066726f6d20696e636f72726563742060008201527f6f776e6572000000000000000000000000000000000000000000000000000000602082015250565b6000612772602583611dd9565b915061277d82612716565b604082019050919050565b600060208201905081810360008301526127a181612765565b9050919050565b7f4552433732313a207472616e7366657220746f20746865207a65726f2061646460008201527f7265737300000000000000000000000000000000000000000000000000000000602082015250565b6000612804602483611dd9565b915061280f826127a8565b604082019050919050565b60006020820190508181036000830152612833816127f7565b9050919050565b7f4552433732313a206d696e7420746f20746865207a65726f2061646472657373600082015250565b6000612870602083611dd9565b915061287b8261283a565b602082019050919050565b6000602082019050818103600083015261289f81612863565b9050919050565b7f4552433732313a20746f6b656e20616c7265616479206d696e74656400000000600082015250565b60006128dc601c83611dd9565b91506128e7826128a6565b602082019050919050565b6000602082019050818103600083015261290b816128cf565b9050919050565b7f4552433732313a20617070726f766520746f2063616c6c657200000000000000600082015250565b6000612948601983611dd9565b915061295382612912565b602082019050919050565b600060208201905081810360008301526129778161293b565b9050919050565b7f4552433732313a207472616e7366657220746f206e6f6e20455243373231526560008201527f63656976657220696d706c656d656e7465720000000000000000000000000000602082015250565b60006129da603283611dd9565b91506129e58261297e565b604082019050919050565b60006020820190508181036000830152612a09816129cd565b9050919050565b7f4e487b7100000000000000000000000000000000000000000000000000000000600052601260045260246000fd5b7f4c6576656c4974656d3a20636f6e7365637574697665207472616e736665727360008201527f206e6f7420737570706f72746564000000000000000000000000000000000000602082015250565b6000612a9b602e83611dd9565b9150612aa682612a3f565b604082019050919050565b60006020820190508181036000830152612aca81612a8e565b9050919050565b7f4e487b7100000000000000000000000000000000000000000000000000000000600052603260045260246000fd5b7f4e487b7100000000000000000000000000000000000000000000000000000000600052601160045260246000fd5b6000612b3a82611e89565b9150612b4583611e89565b925082821015612b5857612b57612b00565b5b828203905092915050565b7f4e487b7100000000000000000000000000000000000000000000000000000000600052603160045260246000fd5b6000612b9d82611e89565b91507fffffffffffffffffffffffffffffffffffffffffffffffffffffffffffffffff8203612bcf57612bce612b00565b5b600182019050919050565b600081519050919050565b600082825260208201905092915050565b6000612c0182612bda565b612c0b8185612be5565b9350612c1b818560208601611dea565b612c2481611e1d565b840191505092915050565b6000608082019050612c446000830187611f1e565b612c516020830186611f1e565b612c5e6040830185612034565b8181036060830152612c708184612bf6565b905095945050505050565b600081519050612c8a81611d3f565b92915050565b600060208284031215612ca657612ca5611d09565b5b6000612cb484828501612c7b565b91505092915050565b6000612cc882611e89565b9150612cd383611e89565b9250827fffffffffffffffffffffffffffffffffffffffffffffffffffffffffffffffff03821115612d0857612d07612b00565b5b82820190509291505056fea2646970667358221220d69ad7e248bc2406faac040823a25a51dc29208043af290c58f843c74fa2739564736f6c634300080d0033",
  "immutableReferences": {},
  "source": "// SPDX-License-Identifier: MIT\npragma solidity ^0.8.13;\n\nimport \"@openzeppelin/contracts/token/ERC721/ERC721.sol\";\nimport \"@openzeppelin/contracts/utils/Counters.sol\";\n\n// \n// \n// \n// level: tokentoken\n// ownedTokens: token\n// -------\n// let ins = await LevelItem.deployed()\n// (await ins.balanceOf(accounts[0])).toString()\n// ins.mint(accounts[0])\n// (await ins.balanceOf(accounts[0])).toString()\n// (await ins.levelOf(0)).toString()\n// (await ins.ownedTokensOf(accounts[0]))[0].toString()\n// ins.mint(accounts[1])\n// (await ins.ownedTokensOf(accounts[1]))\n// ins.transferFrom(accounts[0],accounts[1],0)\n// (await ins.ownedTokensOf(accounts[1]))\n// (await ins.ownedTokensOf(accounts[0]))\ncontract LevelItem is ERC721 {\n    // Mapping from token ID to token level\n    mapping(uint256 => uint256) private _level;\n    // Mapping from owner to list of owned token IDs\n    mapping(address => uint256[]) private _ownedTokens;\n\n    // tokenID\n    using Counters for Counters.Counter;\n    Counters.Counter private _tokenIds;\n\n    constructor() ERC721(\"LevelItem\", \"LITM\") {}\n\n    /**\n     * mint\n     */\n    function mint(address player) public returns (uint256) {\n        uint256 newId = _tokenIds.current();\n\n        super._mint(player, newId);\n\n        _level[newId] = 1;\n\n        _tokenIds.increment();\n\n        return newId;\n    }\n\n    /**\n     * @dev Sets `_tokenURI` as the tokenURI of `tokenId`.\n     *\n     * Requirements:\n     * - `tokenId` must exist.\n     */\n    function _addLevel(uint256 tokenId) internal virtual {\n        require(_exists(tokenId), \"LevelItem: Level set of nonexistent token\");\n        _level[tokenId] += 1;\n    }\n\n    /**\n     * Returns the level of the `tokenId`. Does NOT revert if token doesn't exist\n     */\n    function levelOf(uint256 tokenId) public view virtual returns (uint256) {\n        return _level[tokenId];\n    }\n\n    /**\n     * Returns tokenIds\n     */\n    function ownedTokensOf(address player)\n        public\n        view\n        virtual\n        returns (uint256[] memory)\n    {\n        return _ownedTokens[player];\n    }\n\n    /**\n     * @dev See {ERC721-_beforeTokenTransfer}.\n     */\n    function _beforeTokenTransfer(\n        address from,\n        address to,\n        uint256 firstTokenId,\n        uint256 batchSize\n    ) internal virtual override {\n        super._beforeTokenTransfer(from, to, firstTokenId, batchSize);\n\n        // Will only trigger during construction. Batch transferring (minting) is not available afterwards.\n        if (batchSize > 1)\n            revert(\"LevelItem: consecutive transfers not supported\");\n\n        // mint or transfer\n        if (to != address(0)) _ownedTokens[to].push(firstTokenId);\n\n        // barn or transfer\n        if (from != address(0)) {\n            for (uint256 i = 0; i < _ownedTokens[from].length; i++) {\n                if (_ownedTokens[from][i] == firstTokenId) {\n                    _ownedTokens[from][i] = _ownedTokens[from][\n                        _ownedTokens[from].length - 1\n                    ];\n                    _ownedTokens[from].pop();\n                    break;\n                }\n            }\n        }\n    }\n}\n",
  "sourcePath": "/Users/tomo/code/github/solidity-truffle-sample/truffle/contracts/LevelItem.sol",
  "compiler": {
    "name": "solc",
    "version": "0.8.13+commit.abaa5c0e.Emscripten.clang"
  },
  "schemaVersion": "3.4.11",
  "updatedAt": "2023-01-06T04:41:29.994Z",
  "networkType": "ethereum",
  "devdoc": {
    "kind": "dev",
    "methods": {
      "approve(address,uint256)": {
        "details": "See {IERC721-approve}."
      },
      "balanceOf(address)": {
        "details": "See {IERC721-balanceOf}."
      },
      "getApproved(uint256)": {
        "details": "See {IERC721-getApproved}."
      },
      "isApprovedForAll(address,address)": {
        "details": "See {IERC721-isApprovedForAll}."
      },
      "name()": {
        "details": "See {IERC721Metadata-name}."
      },
      "ownerOf(uint256)": {
        "details": "See {IERC721-ownerOf}."
      },
      "safeTransferFrom(address,address,uint256)": {
        "details": "See {IERC721-safeTransferFrom}."
      },
      "safeTransferFrom(address,address,uint256,bytes)": {
        "details": "See {IERC721-safeTransferFrom}."
      },
      "setApprovalForAll(address,bool)": {
        "details": "See {IERC721-setApprovalForAll}."
      },
      "supportsInterface(bytes4)": {
        "details": "See {IERC165-supportsInterface}."
      },
      "symbol()": {
        "details": "See {IERC721Metadata-symbol}."
      },
      "tokenURI(uint256)": {
        "details": "See {IERC721Metadata-tokenURI}."
      },
      "transferFrom(address,address,uint256)": {
        "details": "See {IERC721-transferFrom}."
      }
    },
    "version": 1
  },
  "userdoc": {
    "kind": "user",
    "methods": {
      "levelOf(uint256)": {
        "notice": "Returns the level of the `tokenId`. Does NOT revert if token doesn't exist"
      },
      "mint(address)": {
        "notice": "mint"
      },
      "ownedTokensOf(address)": {
        "notice": "Returns tokenIds"
      }
    },
    "version": 1
  }
}