{
  "contractName": "LevelItem",
  "abi": [
    {
      "inputs": [],
      "stateMutability": "nonpayable",
      "type": "constructor"
    },
    {
      "anonymous": false,
      "inputs": [
        {
          "indexed": true,
          "internalType": "address",
          "name": "owner",
          "type": "address"
        },
        {
          "indexed": true,
          "internalType": "address",
          "name": "approved",
          "type": "address"
        },
        {
          "indexed": true,
          "internalType": "uint256",
          "name": "tokenId",
          "type": "uint256"
        }
      ],
      "name": "Approval",
      "type": "event"
    },
    {
      "anonymous": false,
      "inputs": [
        {
          "indexed": true,
          "internalType": "address",
          "name": "owner",
          "type": "address"
        },
        {
          "indexed": true,
          "internalType": "address",
          "name": "operator",
          "type": "address"
        },
        {
          "indexed": false,
          "internalType": "bool",
          "name": "approved",
          "type": "bool"
        }
      ],
      "name": "ApprovalForAll",
      "type": "event"
    },
    {
      "anonymous": false,
      "inputs": [
        {
          "indexed": true,
          "internalType": "address",
          "name": "from",
          "type": "address"
        },
        {
          "indexed": true,
          "internalType": "address",
          "name": "to",
          "type": "address"
        },
        {
          "indexed": true,
          "internalType": "uint256",
          "name": "tokenId",
          "type": "uint256"
        }
      ],
      "name": "Transfer",
      "type": "event"
    },
    {
      "inputs": [
        {
          "internalType": "address",
          "name": "to",
          "type": "address"
        },
        {
          "internalType": "uint256",
          "name": "tokenId",
          "type": "uint256"
        }
      ],
      "name": "approve",
      "outputs": [],
      "stateMutability": "nonpayable",
      "type": "function"
    },
    {
      "inputs": [
        {
          "internalType": "address",
          "name": "owner",
          "type": "address"
        }
      ],
      "name": "balanceOf",
      "outputs": [
        {
          "internalType": "uint256",
          "name": "",
          "type": "uint256"
        }
      ],
      "stateMutability": "view",
      "type": "function",
      "constant": true
    },
    {
      "inputs": [
        {
          "internalType": "uint256",
          "name": "tokenId",
          "type": "uint256"
        }
      ],
      "name": "getApproved",
      "outputs": [
        {
          "internalType": "address",
          "name": "",
          "type": "address"
        }
      ],
      "stateMutability": "view",
      "type": "function",
      "constant": true
    },
    {
      "inputs": [
        {
          "internalType": "address",
          "name": "owner",
          "type": "address"
        },
        {
          "internalType": "address",
          "name": "operator",
          "type": "address"
        }
      ],
      "name": "isApprovedForAll",
      "outputs": [
        {
          "internalType": "bool",
          "name": "",
          "type": "bool"
        }
      ],
      "stateMutability": "view",
      "type": "function",
      "constant": true
    },
    {
      "inputs": [],
      "name": "name",
      "outputs": [
        {
          "internalType": "string",
          "name": "",
          "type": "string"
        }
      ],
      "stateMutability": "view",
      "type": "function",
      "constant": true
    },
    {
      "inputs": [
        {
          "internalType": "uint256",
          "name": "tokenId",
          "type": "uint256"
        }
      ],
      "name": "ownerOf",
      "outputs": [
        {
          "internalType": "address",
          "name": "",
          "type": "address"
        }
      ],
      "stateMutability": "view",
      "type": "function",
      "constant": true
    },
    {
      "inputs": [
        {
          "internalType": "address",
          "name": "from",
          "type": "address"
        },
        {
          "internalType": "address",
          "name": "to",
          "type": "address"
        },
        {
          "internalType": "uint256",
          "name": "tokenId",
          "type": "uint256"
        }
      ],
      "name": "safeTransferFrom",
      "outputs": [],
      "stateMutability": "nonpayable",
      "type": "function"
    },
    {
      "inputs": [
        {
          "internalType": "address",
          "name": "from",
          "type": "address"
        },
        {
          "internalType": "address",
          "name": "to",
          "type": "address"
        },
        {
          "internalType": "uint256",
          "name": "tokenId",
          "type": "uint256"
        },
        {
          "internalType": "bytes",
          "name": "data",
          "type": "bytes"
        }
      ],
      "name": "safeTransferFrom",
      "outputs": [],
      "stateMutability": "nonpayable",
      "type": "function"
    },
    {
      "inputs": [
        {
          "internalType": "address",
          "name": "operator",
          "type": "address"
        },
        {
          "internalType": "bool",
          "name": "approved",
          "type": "bool"
        }
      ],
      "name": "setApprovalForAll",
      "outputs": [],
      "stateMutability": "nonpayable",
      "type": "function"
    },
    {
      "inputs": [
        {
          "internalType": "bytes4",
          "name": "interfaceId",
          "type": "bytes4"
        }
      ],
      "name": "supportsInterface",
      "outputs": [
        {
          "internalType": "bool",
          "name": "",
          "type": "bool"
        }
      ],
      "stateMutability": "view",
      "type": "function",
      "constant": true
    },
    {
      "inputs": [],
      "name": "symbol",
      "outputs": [
        {
          "internalType": "string",
          "name": "",
          "type": "string"
        }
      ],
      "stateMutability": "view",
      "type": "function",
      "constant": true
    },
    {
      "inputs": [
        {
          "internalType": "uint256",
          "name": "tokenId",
          "type": "uint256"
        }
      ],
      "name": "tokenURI",
      "outputs": [
        {
          "internalType": "string",
          "name": "",
          "type": "string"
        }
      ],
      "stateMutability": "view",
      "type": "function",
      "constant": true
    },
    {
      "inputs": [
        {
          "internalType": "address",
          "name": "from",
          "type": "address"
        },
        {
          "internalType": "address",
          "name": "to",
          "type": "address"
        },
        {
          "internalType": "uint256",
          "name": "tokenId",
          "type": "uint256"
        }
      ],
      "name": "transferFrom",
      "outputs": [],
      "stateMutability": "nonpayable",
      "type": "function"
    },
    {
      "inputs": [
        {
          "internalType": "address",
          "name": "player",
          "type": "address"
        }
      ],
      "name": "mint",
      "outputs": [
        {
          "internalType": "uint256",
          "name": "",
          "type": "uint256"
        }
      ],
      "stateMutability": "nonpayable",
      "type": "function"
    },
    {
      "inputs": [
        {
          "internalType": "uint256",
          "name": "tokenId",
          "type": "uint256"
        }
      ],
      "name": "levelOf",
      "outputs": [
        {
          "internalType": "uint256",
          "name": "",
          "type": "uint256"
        }
      ],
      "stateMutability": "view",
      "type": "function",
      "constant": true
    }
  ],
  "bytecode": "0x60806040523480156200001157600080fd5b506040518060400160405280600981526020017f4c6576656c4974656d00000000000000000000000000000000000000000000008152506040518060400160405280600481526020017f4c49544d00000000000000000000000000000000000000000000000000000000815250816000908051906020019062000096929190620000b8565b508060019080519060200190620000af929190620000b8565b505050620001cc565b828054620000c69062000197565b90600052602060002090601f016020900481019282620000ea576000855562000136565b82601f106200010557805160ff191683800117855562000136565b8280016001018555821562000136579182015b828111156200013557825182559160200191906001019062000118565b5b50905062000145919062000149565b5090565b5b80821115620001645760008160009055506001016200014a565b5090565b7f4e487b7100000000000000000000000000000000000000000000000000000000600052602260045260246000fd5b60006002820490506001821680620001b057607f821691505b602082108103620001c657620001c562000168565b5b50919050565b61270380620001dc6000396000f3fe608060405234801561001057600080fd5b50600436106100f55760003560e01c80636a62784211610097578063a22cb46511610066578063a22cb465146102aa578063b88d4fde146102c6578063c87b56dd146102e2578063e985e9c514610312576100f5565b80636a627842146101fc5780636d5e30321461022c57806370a082311461025c57806395d89b411461028c576100f5565b8063095ea7b3116100d3578063095ea7b31461017857806323b872dd1461019457806342842e0e146101b05780636352211e146101cc576100f5565b806301ffc9a7146100fa57806306fdde031461012a578063081812fc14610148575b600080fd5b610114600480360381019061010f919061193d565b610342565b6040516101219190611985565b60405180910390f35b610132610424565b60405161013f9190611a39565b60405180910390f35b610162600480360381019061015d9190611a91565b6104b6565b60405161016f9190611aff565b60405180910390f35b610192600480360381019061018d9190611b46565b6104fc565b005b6101ae60048036038101906101a99190611b86565b610613565b005b6101ca60048036038101906101c59190611b86565b610673565b005b6101e660048036038101906101e19190611a91565b610693565b6040516101f39190611aff565b60405180910390f35b61021660048036038101906102119190611bd9565b610719565b6040516102239190611c15565b60405180910390f35b61024660048036038101906102419190611a91565b61075e565b6040516102539190611c15565b60405180910390f35b61027660048036038101906102719190611bd9565b61077b565b6040516102839190611c15565b60405180910390f35b610294610832565b6040516102a19190611a39565b60405180910390f35b6102c460048036038101906102bf9190611c5c565b6108c4565b005b6102e060048036038101906102db9190611dd1565b6108da565b005b6102fc60048036038101906102f79190611a91565b61093c565b6040516103099190611a39565b60405180910390f35b61032c60048036038101906103279190611e54565b6109a4565b6040516103399190611985565b60405180910390f35b60007f80ac58cd000000000000000000000000000000000000000000000000000000007bffffffffffffffffffffffffffffffffffffffffffffffffffffffff1916827bffffffffffffffffffffffffffffffffffffffffffffffffffffffff1916148061040d57507f5b5e139f000000000000000000000000000000000000000000000000000000007bffffffffffffffffffffffffffffffffffffffffffffffffffffffff1916827bffffffffffffffffffffffffffffffffffffffffffffffffffffffff1916145b8061041d575061041c82610a38565b5b9050919050565b60606000805461043390611ec3565b80601f016020809104026020016040519081016040528092919081815260200182805461045f90611ec3565b80156104ac5780601f10610481576101008083540402835291602001916104ac565b820191906000526020600020905b81548152906001019060200180831161048f57829003601f168201915b5050505050905090565b60006104c182610aa2565b6004600083815260200190815260200160002060009054906101000a900473ffffffffffffffffffffffffffffffffffffffff169050919050565b600061050782610693565b90508073ffffffffffffffffffffffffffffffffffffffff168373ffffffffffffffffffffffffffffffffffffffff1603610577576040517f08c379a000000000000000000000000000000000000000000000000000000000815260040161056e90611f66565b60405180910390fd5b8073ffffffffffffffffffffffffffffffffffffffff16610596610aed565b73ffffffffffffffffffffffffffffffffffffffff1614806105c557506105c4816105bf610aed565b6109a4565b5b610604576040517f08c379a00000000000000000000000000000000000000000000000000000000081526004016105fb90611ff8565b60405180910390fd5b61060e8383610af5565b505050565b61062461061e610aed565b82610bae565b610663576040517f08c379a000000000000000000000000000000000000000000000000000000000815260040161065a9061208a565b60405180910390fd5b61066e838383610c43565b505050565b61068e838383604051806020016040528060008152506108da565b505050565b60008061069f83610f3c565b9050600073ffffffffffffffffffffffffffffffffffffffff168173ffffffffffffffffffffffffffffffffffffffff1603610710576040517f08c379a0000000000000000000000000000000000000000000000000000000008152600401610707906120f6565b60405180910390fd5b80915050919050565b6000806107266007610f79565b90506107328382610f87565b6001600660008381526020019081526020016000208190555061075560076111a4565b80915050919050565b600060066000838152602001908152602001600020549050919050565b60008073ffffffffffffffffffffffffffffffffffffffff168273ffffffffffffffffffffffffffffffffffffffff16036107eb576040517f08c379a00000000000000000000000000000000000000000000000000000000081526004016107e290612188565b60405180910390fd5b600360008373ffffffffffffffffffffffffffffffffffffffff1673ffffffffffffffffffffffffffffffffffffffff168152602001908152602001600020549050919050565b60606001805461084190611ec3565b80601f016020809104026020016040519081016040528092919081815260200182805461086d90611ec3565b80156108ba5780601f1061088f576101008083540402835291602001916108ba565b820191906000526020600020905b81548152906001019060200180831161089d57829003601f168201915b5050505050905090565b6108d66108cf610aed565b83836111ba565b5050565b6108eb6108e5610aed565b83610bae565b61092a576040517f08c379a00000000000000000000000000000000000000000000000000000000081526004016109219061208a565b60405180910390fd5b61093684848484611326565b50505050565b606061094782610aa2565b6000610951611382565b90506000815111610971576040518060200160405280600081525061099c565b8061097b84611399565b60405160200161098c9291906121e4565b6040516020818303038152906040525b915050919050565b6000600560008473ffffffffffffffffffffffffffffffffffffffff1673ffffffffffffffffffffffffffffffffffffffff16815260200190815260200160002060008373ffffffffffffffffffffffffffffffffffffffff1673ffffffffffffffffffffffffffffffffffffffff16815260200190815260200160002060009054906101000a900460ff16905092915050565b60007f01ffc9a7000000000000000000000000000000000000000000000000000000007bffffffffffffffffffffffffffffffffffffffffffffffffffffffff1916827bffffffffffffffffffffffffffffffffffffffffffffffffffffffff1916149050919050565b610aab81611467565b610aea576040517f08c379a0000000000000000000000000000000000000000000000000000000008152600401610ae1906120f6565b60405180910390fd5b50565b600033905090565b816004600083815260200190815260200160002060006101000a81548173ffffffffffffffffffffffffffffffffffffffff021916908373ffffffffffffffffffffffffffffffffffffffff160217905550808273ffffffffffffffffffffffffffffffffffffffff16610b6883610693565b73ffffffffffffffffffffffffffffffffffffffff167f8c5be1e5ebec7d5bd14f71427d1e84f3dd0314c0f7b2291e5b200ac8c7c3b92560405160405180910390a45050565b600080610bba83610693565b90508073ffffffffffffffffffffffffffffffffffffffff168473ffffffffffffffffffffffffffffffffffffffff161480610bfc5750610bfb81856109a4565b5b80610c3a57508373ffffffffffffffffffffffffffffffffffffffff16610c22846104b6565b73ffffffffffffffffffffffffffffffffffffffff16145b91505092915050565b8273ffffffffffffffffffffffffffffffffffffffff16610c6382610693565b73ffffffffffffffffffffffffffffffffffffffff1614610cb9576040517f08c379a0000000000000000000000000000000000000000000000000000000008152600401610cb09061227a565b60405180910390fd5b600073ffffffffffffffffffffffffffffffffffffffff168273ffffffffffffffffffffffffffffffffffffffff1603610d28576040517f08c379a0000000000000000000000000000000000000000000000000000000008152600401610d1f9061230c565b60405180910390fd5b610d3583838360016114a8565b8273ffffffffffffffffffffffffffffffffffffffff16610d5582610693565b73ffffffffffffffffffffffffffffffffffffffff1614610dab576040517f08c379a0000000000000000000000000000000000000000000000000000000008152600401610da29061227a565b60405180910390fd5b6004600082815260200190815260200160002060006101000a81549073ffffffffffffffffffffffffffffffffffffffff02191690556001600360008573ffffffffffffffffffffffffffffffffffffffff1673ffffffffffffffffffffffffffffffffffffffff168152602001908152602001600020600082825403925050819055506001600360008473ffffffffffffffffffffffffffffffffffffffff1673ffffffffffffffffffffffffffffffffffffffff16815260200190815260200160002060008282540192505081905550816002600083815260200190815260200160002060006101000a81548173ffffffffffffffffffffffffffffffffffffffff021916908373ffffffffffffffffffffffffffffffffffffffff160217905550808273ffffffffffffffffffffffffffffffffffffffff168473ffffffffffffffffffffffffffffffffffffffff167fddf252ad1be2c89b69c2b068fc378daa952ba7f163c4a11628f55a4df523b3ef60405160405180910390a4610f3783838360016115ce565b505050565b60006002600083815260200190815260200160002060009054906101000a900473ffffffffffffffffffffffffffffffffffffffff169050919050565b600081600001549050919050565b600073ffffffffffffffffffffffffffffffffffffffff168273ffffffffffffffffffffffffffffffffffffffff1603610ff6576040517f08c379a0000000000000000000000000000000000000000000000000000000008152600401610fed90612378565b60405180910390fd5b610fff81611467565b1561103f576040517f08c379a0000000000000000000000000000000000000000000000000000000008152600401611036906123e4565b60405180910390fd5b61104d6000838360016114a8565b61105681611467565b15611096576040517f08c379a000000000000000000000000000000000000000000000000000000000815260040161108d906123e4565b60405180910390fd5b6001600360008473ffffffffffffffffffffffffffffffffffffffff1673ffffffffffffffffffffffffffffffffffffffff16815260200190815260200160002060008282540192505081905550816002600083815260200190815260200160002060006101000a81548173ffffffffffffffffffffffffffffffffffffffff021916908373ffffffffffffffffffffffffffffffffffffffff160217905550808273ffffffffffffffffffffffffffffffffffffffff16600073ffffffffffffffffffffffffffffffffffffffff167fddf252ad1be2c89b69c2b068fc378daa952ba7f163c4a11628f55a4df523b3ef60405160405180910390a46111a06000838360016115ce565b5050565b6001816000016000828254019250508190555050565b8173ffffffffffffffffffffffffffffffffffffffff168373ffffffffffffffffffffffffffffffffffffffff1603611228576040517f08c379a000000000000000000000000000000000000000000000000000000000815260040161121f90612450565b60405180910390fd5b80600560008573ffffffffffffffffffffffffffffffffffffffff1673ffffffffffffffffffffffffffffffffffffffff16815260200190815260200160002060008473ffffffffffffffffffffffffffffffffffffffff1673ffffffffffffffffffffffffffffffffffffffff16815260200190815260200160002060006101000a81548160ff0219169083151502179055508173ffffffffffffffffffffffffffffffffffffffff168373ffffffffffffffffffffffffffffffffffffffff167f17307eab39ab6107e8899845ad3d59bd9653f200f220920489ca2b5937696c31836040516113199190611985565b60405180910390a3505050565b611331848484610c43565b61133d848484846115d4565b61137c576040517f08c379a0000000000000000000000000000000000000000000000000000000008152600401611373906124e2565b60405180910390fd5b50505050565b606060405180602001604052806000815250905090565b6060600060016113a88461175b565b01905060008167ffffffffffffffff8111156113c7576113c6611ca6565b5b6040519080825280601f01601f1916602001820160405280156113f95781602001600182028036833780820191505090505b509050600082602001820190505b60011561145c578080600190039150507f3031323334353637383961626364656600000000000000000000000000000000600a86061a8153600a85816114505761144f612502565b5b04945060008503611407575b819350505050919050565b60008073ffffffffffffffffffffffffffffffffffffffff1661148983610f3c565b73ffffffffffffffffffffffffffffffffffffffff1614159050919050565b60018111156115c857600073ffffffffffffffffffffffffffffffffffffffff168473ffffffffffffffffffffffffffffffffffffffff161461153c5780600360008673ffffffffffffffffffffffffffffffffffffffff1673ffffffffffffffffffffffffffffffffffffffff16815260200190815260200160002060008282546115349190612560565b925050819055505b600073ffffffffffffffffffffffffffffffffffffffff168373ffffffffffffffffffffffffffffffffffffffff16146115c75780600360008573ffffffffffffffffffffffffffffffffffffffff1673ffffffffffffffffffffffffffffffffffffffff16815260200190815260200160002060008282546115bf9190612594565b925050819055505b5b50505050565b50505050565b60006115f58473ffffffffffffffffffffffffffffffffffffffff166118ae565b1561174e578373ffffffffffffffffffffffffffffffffffffffff1663150b7a0261161e610aed565b8786866040518563ffffffff1660e01b8152600401611640949392919061263f565b6020604051808303816000875af192505050801561167c57506040513d601f19601f8201168201806040525081019061167991906126a0565b60015b6116fe573d80600081146116ac576040519150601f19603f3d011682016040523d82523d6000602084013e6116b1565b606091505b5060008151036116f6576040517f08c379a00000000000000000000000000000000000000000000000000000000081526004016116ed906124e2565b60405180910390fd5b805181602001fd5b63150b7a0260e01b7bffffffffffffffffffffffffffffffffffffffffffffffffffffffff1916817bffffffffffffffffffffffffffffffffffffffffffffffffffffffff191614915050611753565b600190505b949350505050565b600080600090507a184f03e93ff9f4daa797ed6e38ed64bf6a1f01000000000000000083106117b9577a184f03e93ff9f4daa797ed6e38ed64bf6a1f01000000000000000083816117af576117ae612502565b5b0492506040810190505b6d04ee2d6d415b85acef810000000083106117f6576d04ee2d6d415b85acef810000000083816117ec576117eb612502565b5b0492506020810190505b662386f26fc10000831061182557662386f26fc10000838161181b5761181a612502565b5b0492506010810190505b6305f5e100831061184e576305f5e100838161184457611843612502565b5b0492506008810190505b612710831061187357612710838161186957611868612502565b5b0492506004810190505b60648310611896576064838161188c5761188b612502565b5b0492506002810190505b600a83106118a5576001810190505b80915050919050565b6000808273ffffffffffffffffffffffffffffffffffffffff163b119050919050565b6000604051905090565b600080fd5b600080fd5b60007fffffffff0000000000000000000000000000000000000000000000000000000082169050919050565b61191a816118e5565b811461192557600080fd5b50565b60008135905061193781611911565b92915050565b600060208284031215611953576119526118db565b5b600061196184828501611928565b91505092915050565b60008115159050919050565b61197f8161196a565b82525050565b600060208201905061199a6000830184611976565b92915050565b600081519050919050565b600082825260208201905092915050565b60005b838110156119da5780820151818401526020810190506119bf565b838111156119e9576000848401525b50505050565b6000601f19601f8301169050919050565b6000611a0b826119a0565b611a1581856119ab565b9350611a258185602086016119bc565b611a2e816119ef565b840191505092915050565b60006020820190508181036000830152611a538184611a00565b905092915050565b6000819050919050565b611a6e81611a5b565b8114611a7957600080fd5b50565b600081359050611a8b81611a65565b92915050565b600060208284031215611aa757611aa66118db565b5b6000611ab584828501611a7c565b91505092915050565b600073ffffffffffffffffffffffffffffffffffffffff82169050919050565b6000611ae982611abe565b9050919050565b611af981611ade565b82525050565b6000602082019050611b146000830184611af0565b92915050565b611b2381611ade565b8114611b2e57600080fd5b50565b600081359050611b4081611b1a565b92915050565b60008060408385031215611b5d57611b5c6118db565b5b6000611b6b85828601611b31565b9250506020611b7c85828601611a7c565b9150509250929050565b600080600060608486031215611b9f57611b9e6118db565b5b6000611bad86828701611b31565b9350506020611bbe86828701611b31565b9250506040611bcf86828701611a7c565b9150509250925092565b600060208284031215611bef57611bee6118db565b5b6000611bfd84828501611b31565b91505092915050565b611c0f81611a5b565b82525050565b6000602082019050611c2a6000830184611c06565b92915050565b611c398161196a565b8114611c4457600080fd5b50565b600081359050611c5681611c30565b92915050565b60008060408385031215611c7357611c726118db565b5b6000611c8185828601611b31565b9250506020611c9285828601611c47565b9150509250929050565b600080fd5b600080fd5b7f4e487b7100000000000000000000000000000000000000000000000000000000600052604160045260246000fd5b611cde826119ef565b810181811067ffffffffffffffff82111715611cfd57611cfc611ca6565b5b80604052505050565b6000611d106118d1565b9050611d1c8282611cd5565b919050565b600067ffffffffffffffff821115611d3c57611d3b611ca6565b5b611d45826119ef565b9050602081019050919050565b82818337600083830152505050565b6000611d74611d6f84611d21565b611d06565b905082815260208101848484011115611d9057611d8f611ca1565b5b611d9b848285611d52565b509392505050565b600082601f830112611db857611db7611c9c565b5b8135611dc8848260208601611d61565b91505092915050565b60008060008060808587031215611deb57611dea6118db565b5b6000611df987828801611b31565b9450506020611e0a87828801611b31565b9350506040611e1b87828801611a7c565b925050606085013567ffffffffffffffff811115611e3c57611e3b6118e0565b5b611e4887828801611da3565b91505092959194509250565b60008060408385031215611e6b57611e6a6118db565b5b6000611e7985828601611b31565b9250506020611e8a85828601611b31565b9150509250929050565b7f4e487b7100000000000000000000000000000000000000000000000000000000600052602260045260246000fd5b60006002820490506001821680611edb57607f821691505b602082108103611eee57611eed611e94565b5b50919050565b7f4552433732313a20617070726f76616c20746f2063757272656e74206f776e6560008201527f7200000000000000000000000000000000000000000000000000000000000000602082015250565b6000611f506021836119ab565b9150611f5b82611ef4565b604082019050919050565b60006020820190508181036000830152611f7f81611f43565b9050919050565b7f4552433732313a20617070726f76652063616c6c6572206973206e6f7420746f60008201527f6b656e206f776e6572206f7220617070726f76656420666f7220616c6c000000602082015250565b6000611fe2603d836119ab565b9150611fed82611f86565b604082019050919050565b6000602082019050818103600083015261201181611fd5565b9050919050565b7f4552433732313a2063616c6c6572206973206e6f7420746f6b656e206f776e6560008201527f72206f7220617070726f76656400000000000000000000000000000000000000602082015250565b6000612074602d836119ab565b915061207f82612018565b604082019050919050565b600060208201905081810360008301526120a381612067565b9050919050565b7f4552433732313a20696e76616c696420746f6b656e2049440000000000000000600082015250565b60006120e06018836119ab565b91506120eb826120aa565b602082019050919050565b6000602082019050818103600083015261210f816120d3565b9050919050565b7f4552433732313a2061646472657373207a65726f206973206e6f74206120766160008201527f6c6964206f776e65720000000000000000000000000000000000000000000000602082015250565b60006121726029836119ab565b915061217d82612116565b604082019050919050565b600060208201905081810360008301526121a181612165565b9050919050565b600081905092915050565b60006121be826119a0565b6121c881856121a8565b93506121d88185602086016119bc565b80840191505092915050565b60006121f082856121b3565b91506121fc82846121b3565b91508190509392505050565b7f4552433732313a207472616e736665722066726f6d20696e636f72726563742060008201527f6f776e6572000000000000000000000000000000000000000000000000000000602082015250565b60006122646025836119ab565b915061226f82612208565b604082019050919050565b6000602082019050818103600083015261229381612257565b9050919050565b7f4552433732313a207472616e7366657220746f20746865207a65726f2061646460008201527f7265737300000000000000000000000000000000000000000000000000000000602082015250565b60006122f66024836119ab565b91506123018261229a565b604082019050919050565b60006020820190508181036000830152612325816122e9565b9050919050565b7f4552433732313a206d696e7420746f20746865207a65726f2061646472657373600082015250565b60006123626020836119ab565b915061236d8261232c565b602082019050919050565b6000602082019050818103600083015261239181612355565b9050919050565b7f4552433732313a20746f6b656e20616c7265616479206d696e74656400000000600082015250565b60006123ce601c836119ab565b91506123d982612398565b602082019050919050565b600060208201905081810360008301526123fd816123c1565b9050919050565b7f4552433732313a20617070726f766520746f2063616c6c657200000000000000600082015250565b600061243a6019836119ab565b915061244582612404565b602082019050919050565b600060208201905081810360008301526124698161242d565b9050919050565b7f4552433732313a207472616e7366657220746f206e6f6e20455243373231526560008201527f63656976657220696d706c656d656e7465720000000000000000000000000000602082015250565b60006124cc6032836119ab565b91506124d782612470565b604082019050919050565b600060208201905081810360008301526124fb816124bf565b9050919050565b7f4e487b7100000000000000000000000000000000000000000000000000000000600052601260045260246000fd5b7f4e487b7100000000000000000000000000000000000000000000000000000000600052601160045260246000fd5b600061256b82611a5b565b915061257683611a5b565b92508282101561258957612588612531565b5b828203905092915050565b600061259f82611a5b565b91506125aa83611a5b565b9250827fffffffffffffffffffffffffffffffffffffffffffffffffffffffffffffffff038211156125df576125de612531565b5b828201905092915050565b600081519050919050565b600082825260208201905092915050565b6000612611826125ea565b61261b81856125f5565b935061262b8185602086016119bc565b612634816119ef565b840191505092915050565b60006080820190506126546000830187611af0565b6126616020830186611af0565b61266e6040830185611c06565b81810360608301526126808184612606565b905095945050505050565b60008151905061269a81611911565b92915050565b6000602082840312156126b6576126b56118db565b5b60006126c48482850161268b565b9150509291505056fea2646970667358221220c60da0ffbc36bd5c9b4df3f8ac8f9d8200d07d44b34535e1a241886ab29c2eed64736f6c634300080d0033",
  "immutableReferences": {},
  "source": "// SPDX-License-Identifier: MIT\npragma solidity ^0.8.13;\n\nimport \"@openzeppelin/contracts/token/ERC721/ERC721.sol\";\nimport \"@openzeppelin/contracts/utils/Counters.sol\";\n\n// \n// \n// \n// level: tokentoken\ncontract LevelItem is ERC721 {\n    // Mapping from token ID to token level\n    mapping(uint256 => uint256) private _level;\n\n    using Counters for Counters.Counter;\n    Counters.Counter private _tokenIds;\n\n    constructor() ERC721(\"LevelItem\", \"LITM\") {}\n\n    /**\n     * \n     */\n    function mint(address player) public returns (uint256) {\n        uint256 newId = _tokenIds.current();\n\n        super._mint(player, newId);\n\n        _level[newId] = 1;\n\n        _tokenIds.increment();\n\n        return newId;\n    }\n\n    /**\n     * @dev Sets `_tokenURI` as the tokenURI of `tokenId`.\n     *\n     * Requirements:\n     * - `tokenId` must exist.\n     */\n    function _addLevel(uint256 tokenId) internal virtual {\n        require(_exists(tokenId), \"LevelItem: Level set of nonexistent token\");\n        _level[tokenId] += 1;\n    }\n\n    /**\n     * Returns the level of the `tokenId`. Does NOT revert if token doesn't exist\n     */\n    function levelOf(uint256 tokenId) public view virtual returns (uint256) {\n        return _level[tokenId];\n    }\n}\n",
  "sourcePath": "/Users/tomo/code/github/solidity-truffle-sample/truffle/contracts/LevelItem.sol",
  "compiler": {
    "name": "solc",
    "version": "0.8.13+commit.abaa5c0e.Emscripten.clang"
  },
  "schemaVersion": "3.4.11",
  "updatedAt": "2023-01-04T17:02:59.579Z",
  "networkType": "ethereum",
  "devdoc": {
    "kind": "dev",
    "methods": {
      "approve(address,uint256)": {
        "details": "See {IERC721-approve}."
      },
      "balanceOf(address)": {
        "details": "See {IERC721-balanceOf}."
      },
      "getApproved(uint256)": {
        "details": "See {IERC721-getApproved}."
      },
      "isApprovedForAll(address,address)": {
        "details": "See {IERC721-isApprovedForAll}."
      },
      "name()": {
        "details": "See {IERC721Metadata-name}."
      },
      "ownerOf(uint256)": {
        "details": "See {IERC721-ownerOf}."
      },
      "safeTransferFrom(address,address,uint256)": {
        "details": "See {IERC721-safeTransferFrom}."
      },
      "safeTransferFrom(address,address,uint256,bytes)": {
        "details": "See {IERC721-safeTransferFrom}."
      },
      "setApprovalForAll(address,bool)": {
        "details": "See {IERC721-setApprovalForAll}."
      },
      "supportsInterface(bytes4)": {
        "details": "See {IERC165-supportsInterface}."
      },
      "symbol()": {
        "details": "See {IERC721Metadata-symbol}."
      },
      "tokenURI(uint256)": {
        "details": "See {IERC721Metadata-tokenURI}."
      },
      "transferFrom(address,address,uint256)": {
        "details": "See {IERC721-transferFrom}."
      }
    },
    "version": 1
  },
  "userdoc": {
    "kind": "user",
    "methods": {
      "levelOf(uint256)": {
        "notice": "Returns the level of the `tokenId`. Does NOT revert if token doesn't exist"
      },
      "mint(address)": {
        "notice": ""
      }
    },
    "version": 1
  }
}